:1004260025303262583A25303262583A25303262E7
:10043600580025303262582F253032625800205439
:10044600696D653A2048483A4D4D3A535300256246
:0C04560058003A002563000A0D257300D1
:10046200C102011200065A4552524F520003604F18
:020472004B003D
:060003004387108FFF226D
:03001300020009DF
:03000900D20232EE
:0A0016007512011208A5E4F512228C
:100032007512017F381208A57F0C1208A57F0612DF
:0B00420008A57F011208A5E4F51222BA
:10004D00E47846F608F612048CE526601778460823
:10005D0006E6187001068606D39464EE64809480DB
:06006D0040E7C322D3228C
:0F007300758921758DFD758780759870D28E22E5
:10008200E47848F608760C7FA07D027B4812004D8A
:01009200224B
:1001CE008F08E4784AF67FA07D017B4A12004D7FAE
:1001DE00A17D057B4A12004D751201AF081208A5CC
:1001EE00E4F5127B057A047926784EE6F52D18E6AD
:0A01FE00F52E18E6F52F12058622F3
:100208008F09E4784FF67FA07D017B4F12004D7F68
:10021800A17D087B4F12004D751201AF091208A588
:10022800E4F5127B057A0479387855E6F52D18E659
:06023800F52E12058622DE
:10023E00ED14601A14602114602814601B146022DF
:10024E0024057028D3EF648094825020D322D3EFFC
:10025E00648094895016D322D3EF64809485500C19
:0E026E00D322D3EF648094895002D322C3229E
:0D0170003002FDC202908000E02410FF224A
:10027C0078527601E408F67FC01200167B057A04EA
:10028C0079441205867FC71200167F0F120016C321
:10029C007853E66480948650401201707851A6071A
:1002AC007853E6FD12023E50E67851E67853E62488
:1002BC000AF8A6077B057A0479548F2D12058678E7
:1002CC0053E6FF64016004EFB403097B057A0479FB
:1002DC005812058678530680B678547602E50AC41F
:1002EC0054F0250BFF7857F6E50CC454F0250D7827
:1002FC0056F6E50EC454F0250F7855F6D3EF64800E
:10030C0094A3502BD308E6648094D95022D318E6DA
:10031C00648094D950197FA07D047B5412004D7FCA
:10032C0001120016E47854F67F0C120016D322C387
:01033C00229E
:10033D00E47858F67FA07D017B5812004D7FA17D9A
:10034D00017B5812004D7858E620E102D322C322DA
:0300230002035D78
:10035D00C0E0C0D0C00030980974632513F8A69989
:0B036D000513C298D000D0D0D0E032C1
:10037800D2ACD2AAD28A1200321200737F5212046F
:0B03880075C2007F597D01120487221E
:10039300120378E4F513E513B401FB7F8012001612
:1003A3007B057A04795A7863E6F52D1205867F502A
:1003B3007D017B6312048C3000FDC2007FC01200FC
:1003C300167B057A04795A7859E6F52D1205867558
:1003D30041017542007543637544007545017B0116
:1003E3007A00795912084CEF3395E04F701A751261
:1003F30002752D01752E00752F607B057A04795DDA
:10040300120586751201808B751202752D01752EEA
:1004130000752F5A7B057A04795D120586751201E2
:03042300619622BD
:100475008FDBD296D29775290143A8A0C2BD75D846
:10048500C5228F228D27228D268F288B23D2DD2210
:07002B00C0D0C0D9C029229A
:0601000075D8D5D0D03205
:080108008528DA75D8C501A0B5
:080110008528DA75D8C501A0AD
:0D00A00075D018A823A923852625D0D032BD
:0701180075D01887DA01B56C
:0601200075D8D5D0D032E5
:08012800D5268575D8D501B973
:0C00B00075D01887DA75D8C509D0D03299
:0601300075D8D5D0D032D5
:0801380075D8E585252601B903
:0501400075D8C501CCDB
:0601480075D8D5D0D032BD
:0701500075D018A6DA01C00A
:0F00C000D5260575D8C1800475D8C508D0D032B3
:0601580075D8D5D0D032AD
:0801600075D8C575D01801D057
:0700D000A822A927D0D032BD
:0801680075D8E575D01801D02F
:0701800075D018A6DA01D8C2
:1000D800D90775D8C1D20001E575D8C508D0D03286
:0501880075D8C501E57A
:0601A00075D8C5D0D03275
:0201A80001E86C
:0D00E80075D018A92287DA75D8C5D0D0329E
:0201B00001E864
:0701B80075D01887DA01F889
:0700F80075D8C509D0D03214
:0601C00075D8C5D0D03255
:0601C80075D8C5D0D0324D
:0300000002049562
:0C049500787FE4F6D8FD7581630204DC7A
:10052100E539242DF8E6053922782A300A02782D9A
:10053100E475F00112094D0208EF2003EB7F2ED282
:10054100038018EF540F2490D43440D4FF30070BAC
:10055100EF24BFB41A0050032461FFE53A6002158D
:100561003A053DE53D7002053C200B58300A0D78F7
:100571002AE475F00112094DEF0209390208A57448
:1005810003D20A8003E4C20AF5398B2A8A2B892C0B
:10059100E4F53AF53CF53DE53A60077F2012055C4C
:1005A10080F5F53BC204C203C205C206C208C209F6
:1005B100C20B12052AFF700D300A057F001205706B
:1005C100AF3DAE3C22B4254EC2D5C20712052AFF6B
:1005D10024D0B40A00501C75F00A20D50DC53AA4E8
:1005E100253AF53A7002D20680E0C53BA4253BF5D9
:1005F1003B80D724CFB41A00EF5004C2E5D20702E2
:100601000756D20480C2D20380BED20580BAD2D5A9
:1006110080B8120521FF12055C020598D20980A855
:10062100D20880A4120521FB120521FA120521F935
:100631004A4B7006791D7A087B05200533E53A603F
:100641002FAF3BBF00011F7E008E82758300120910
:100651000A60050EEE6F70F1C2D5EBC0E0EAC0E0B2
:10066100E9C0E0EE12079AD0E0F9D0E0FAD0E0FB61
:100671001208EFFF60A3EBC0E0EAC0E0E9C0E012BE
:10068100055CD0E02401F9D0E03400FAD0E0FBE5CC
:100691003B60DDD53BDA80817B057A077996D2050F
:1006A10080987910800C79088008D2D5790A800663
:1006B100790AC2D5C209E4FAFDFEFF120521FC7BCD
:1006C10008200413120521FD7B1030030A120521B5
:1006D100FE120521FF7B20EC3382D592D55013C346
:1006E100E43003069FFFE49EFEE42004039DFDE445
:1006F1009CFCE4CBF8C204EC700CCFCECDCCE8244A
:10070100F8F870F38017C3EF33FFEE33FEED33FDDE
:10071100EC33FCEB33FB994002FB0FD8E9EB3004DF
:1007210005F8D0E0C448B204C0E00AEC4D4E4F7861
:10073100207B0070C2EAC0E012079CD0F0D0E0201C
:100741000404C4C0E0C4B204C0F0120545D0F0D521
:10075100F0EB02059812095D06255306A35806071A
:100761004C06034206A74F06AB4406AB49061343AA
:1007710006B155069946069945069947082F500630
:100781000B2D060F2E061D2B062123060D20082AF0
:100791002A000006173F3F3F00790AA2D520061420
:1007A100300809B910020404B9080104A2D52009CE
:1007B100025001042005619205B53A005032C0E0B3
:0B07C1007F203006177F30A205720970
:1007CC007208500D1207F1C205C209C2087F3080B1
:1007DC000F300803E9C0E012055C300803D0E0F9E3
:1007EC00D0E0B53ACE3008177F30B9100C12055C4A
:1007FC007F583007077F788003B9080312055C30F7
:10080C0005057F2D02055C7F2B2009F822920580BF
:10081C00D4286E756C6C29002D4958504443D20B6A
:10082C000205C9120521B406004001E49008249386
:10083C0012054D743A12054DD206753A040206A300
:10084C008B3E8A3F8940AB41AA42A9431208EFFE76
:10085C00AB3EAA3FA9401208EFFD6E702BED600D68
:10086C00E54515457002154414454470037F00227C
:10087C0074012540F540E4353FF53F74012543F5FF
:10088C0043E43542F54280BED3EE6480F8ED6480DB
:09089C009840037F01227FFF2236
:1008A500BF0A08740DFF1208B480031208B422C0F1
:1008B50000C001C082C0837912E7B4020AEFF5993E
:1008C5003099FDC299801A758382758202E0548041
:1008D50070FBE77007758201EFF08005758200EF08
:0A08E500F0D083D082D001D00022B1
:1004A100020393E493A3F8E493A34003F68001F2DB
:1004B10008DFF48029E493A3F85407240CC8C3335C
:1004C100C4540F4420C8834004F456800146F6DF2B
:1004D100E4800B0102040810204080900462E47E55
:1004E100019360BCA3FF543F30E509541FFEE49320
:1004F100A360010ECF54C025E060A840B8E493A3E7
:10050100FAE493A3F8E493A3C8C582C8CAC583CA11
:10051100F0A3C8C582C8CAC583CADFE9DEE780BEC9
:010474000087
:1008EF00BB020689828A83E0224003BB0402E7220F
:0B08FF00400789828A83E49322E322F1
:10090A00BB020CE58229F582E5833AF583E02240B1
:10091A0003BB0406E92582F8E622400DE58229F5A3
:0F092A0082E5833AF583E49322E92582F8E222FD
:10093900BB020689828A83F0224003BB0402F722A4
:040949005001F32244
:10094D00FAE6FB0808E6F925F0F618E6CA3AF622AB
:10095D00D083D082F8E4937012740193700DA3A329
:10096D0093F8740193F5828883E47374029368603D
:06097D00EFA3A3A380DF3D
:00000001FF
