:10019F0020204552524F52205B25303362645D0060
:1001AF00436F6D6D616E643A2025632563002042B5
:1001BF00797465732052583A2025642000205072BC
:1001CF0065737320746F205669657720200025634F
:0A01DF000073696F307465737400DB
:1001E900C100010E00010B82010F00031030310024
:0401F900020C0000F4
:03001300020003E5
:03000300D20032F6
:0A001600750F011205B5E4F50F2285
:10002600750F017F381205B57F0C1205B57F0612D4
:0B00360005B57F011205B5E4F50F22AF
:0C004100758921758DFDD28E7598702296
:0D004D003000FDC200908000E02410FF2272
:10005A00D2AAD2ACD2A9D28AD2AFC2BAD2B9C2BCBF
:04006A00120041221D
:03000B0002006E82
:10006E00C0E0C000C28C78147601E418F6850C0945
:0C007E00850D0AF50CF50DD000D0E03225
:10008A00EF60177F011200167F801200167B057A37
:0B009A0001799F1202EFE47814F622B7
:1000A500904200E0643A60037F0122904201E078CB
:1000B500106660037F0222904202E07811666003B9
:1000C5007F02227F011200167FC01200167B057A7F
:1000D5000179AF904203E0F525A3E0F5261202EF82
:0600E500E47814F6FF228E
:1000EB007FC01200167B057A0179BD850925850A2B
:1000FB00261202EF7F801200167B057A0179CC1253
:10010B0002EF30003912004D7F011200167FC01232
:10011B000016E4F508D3E508950AE49509501B7B16
:10012B00057A0179DD74002508F582E43442F58304
:0F013B00E0F5251202EF050880DBE47814F622C8
:0300230002014A8D
:10014A00C0E0C083C082C0D075D01878137601D2BF
:10015A008CC298E4F58C7400250DF582E50C3442C6
:10016A00F583E599F0050DE50D7002050CD0D0D0A8
:06017A0082D083D0E032C8
:1001800012005A7F011200167B057A0179E01202F3
:0F019000EF7814E660FB1200A512008A80F322BC
:030000000201FEFC
:0C01FE00787FE4F6D8FD758135020245DB
:10028A00E5312425F8E6053122782230080278255E
:10029A00E475F00112066E0206102001EB7F2ED2E1
:1002AA00018018EF540F2490D43440D4FF30050B4A
:1002BA00EF24BFB41A0050032461FFE5326002152F
:1002CA00320535E5357002053420095830080D78B5
:1002DA0022E475F00112066EEF02065A0205B574A1
:1002EA0003D2088003E4C208F5318B228A238924C9
:1002FA00E4F532F534F535E53260077F201202C5A0
:10030A0080F5F533C202C201C203C204C206C207A3
:10031A00C209120293FF700D3008057F001202D93C
:10032A00AF35AE3422B4254EC2D5C205120293FFB0
:10033A0024D0B40A00501C75F00A20D50DC532A489
:10034A002532F5327002D20480E0C533A42533F594
:10035A003380D724CFB41A00EF5004C2E5D2050285
:10036A0004BFD20280C2D20180BED20380BAD2D5E3
:10037A0080B812028AFF1202C5020301D20780A8BE
:10038A00D20680A412028AFB12028AFA12028AF99F
:10039A004A4B700679867A057B05200333E532607D
:1003AA002FAF33BF00011F7E008E827583001206B5
:1003BA002B60050EEE6F70F1C2D5EBC0E0EAC0E02B
:1003CA00E9C0E0EE120503D0E0F9D0E0FAD0E0FB94
:1003DA00120610FF60A3EBC0E0EAC0E0E9C0E01239
:1003EA0002C5D0E02401F9D0E03400FAD0E0FBE500
:1003FA003360DDD533DA80817B057A0479FFD20355
:10040A0080987910800C79088008D2D5790A8006FC
:10041A00790AC2D5C207E4FAFDFEFF12028AFC7B02
:10042A000820021312028AFD7B1030010A12028A86
:10043A00FE12028AFF7B20EC3382D592D55013C379
:10044A00E43001069FFFE49EFEE42002039DFDE4E2
:10045A009CFCE4CBF8C202EC700CCFCECDCCE824E5
:10046A00F8F870F38017C3EF33FFEE33FEED33FD78
:10047A00EC33FCEB33FB994002FB0FD8E9EB30027B
:10048A0005F8D0E0C448B202C0E00AEC4D4E4F78FD
:10049A00207B0070C2EAC0E0120505D0F0D0E0204F
:1004AA000204C4C0E0C4B202C0F01202AED0F0D559
:1004BA00F0EB02030112067E038E53040C580370FC
:1004CA004C036C4204104F041444041449037C4343
:1004DA00041A5504024604024504024705985003CB
:1004EA00742D03782E03862B038A23037620059323
:1004FA002A000003803F3F3F00790AA2D520041456
:10050A00300609B910020404B9080104A2D520076B
:10051A00025001042003619203B532005032C0E058
:0B052A007F203004177F30A20372070F
:100535007206500D12055AC203C207C2067F3080EB
:100545000F300603E9C0E01202C5300603D0E0F91A
:10055500D0E0B532CE3006177F30B9100C1202C587
:100565007F583005077F788003B908031202C5302C
:1005750003057F2D0202C57F2B2007F822920380F9
:10058500D4286E756C6C29002D4958504443D20906
:1005950002033212028AB406004001E490058D93ED
:1005A5001202B6743A1202B6D20475320402040C71
:1005B500BF0A09740DFF1205C1740AFFC000C0010E
:1005C500C082C083790FE7B40311850E837582005D
:1005D500EFF0C294D2942092FD8027B4020AEFF581
:1005E500993099FDC299801A850B83758202E05472
:1005F5008070FBE77007758201EFF080057582005A
:0B060500EFF0D083D082D001D00022A3
:10020A00020180E493A3F8E493A34003F68001F289
:10021A0008DFF48029E493A3F85407240CC8C333F5
:10022A00C4540F4420C8834004F456800146F6DFC4
:10023A00E4800B01020408102040809001E9E47E6A
:10024A00019360BCA3FF543F30E509541FFEE493B9
:10025A00A360010ECF54C025E060A840B8E493A380
:10026A00FAE493A3F8E493A3C8C582C8CAC583CAAB
:10027A00F0A3C8C582C8CAC583CADFE9DEE780BE63
:0101FD000001
:10061000BB020689828A83E0224003BB0402E722F0
:0B062000400789828A83E49322E322D2
:10062B00BB020CE58229F582E5833AF583E0224093
:10063B0003BB0406E92582F8E622400DE58229F585
:0F064B0082E5833AF583E49322E92582F8E222DF
:10065A00BB020689828A83F0224003BB0402F72286
:04066A005001F32226
:10066E00FAE6FB0808E6F925F0F618E6CA3AF6228D
:10067E00D083D082F8E4937012740193700DA3A30B
:10068E0093F8740193F5828883E47374029368601F
:06069E00EFA3A3A380DF1F
:00000001FF
