:1004D70025303262583A25303262583A2530326236
:1004E700580025303262582F253032625800205488
:1004F700696D653A2048483A4D4D3A535300256295
:1005070058003A002563002563202020202000455D
:0505170052524F52009A
:10018D00C102011200025DDC10025FDF8A025945D7
:01019D000061
:060003004387108FFF226D
:03001300020009DF
:03000900D20232EE
:0A00160075120112094CE4F51222E4
:100032007512017F3812094C7F0C12094C7F06128F
:0B004200094C7F0112094CE4F512226A
:10004D00E47846F608F6120533E52660177846087B
:10005D0006E6187001068606D39464EE64809480DB
:06006D0040E7C322D3228C
:0C007300758921758DE8759878D28E2271
:10007F00E47848F608760C7FA07D027B4812004D8D
:01008F00224E
:1001CE008F08E4784AF67FA07D017B4A12004D7FAE
:1001DE00A17D057B4A12004D751201AF0812094C24
:1001EE00E4F5127B057A0479D7784EE6F52D18E6FC
:0A01FE00F52E18E6F52F12062D224B
:100208008F09E4784FF67FA07D017B4F12004D7F68
:10021800A17D087B4F12004D751201AF0912094CE0
:10022800E4F5127B057A0479E97855E6F52D18E6A8
:06023800F52E12062D2236
:10023E00ED14601A14602114602814601B146022DF
:10024E0024057028D3EF648094825020D322D3EFFC
:10025E00648094895016D322D3EF64809485500C19
:0E026E00D322D3EF648094895002D322C3229E
:0D0090003002FDC202908000E02410FF222B
:10027C0078527601E408F67FC01200167B057A04EA
:10028C0079F512062D7FC71200167F0F120016C3C8
:10029C007853E66480948650401200907851A607FB
:1002AC007853E6FD12023E50E67851E67853E62488
:1002BC000AF8A6077B057A0579058F2D12062D788D
:1002CC0053E6FF64016004EFB403097B057A0579FA
:1002DC000912062D78530680B678547602E50AC4C6
:1002EC0054F0250BFF7857F6E50CC454F0250D7827
:1002FC0056F6E50EC454F0250F7855F6D3EF64800E
:10030C0094A3502BD308E6648094D95022D318E6DA
:10031C00648094D950197FA07D047B5412004D7FCA
:10032C0001120016E47854F67F0C120016D322C387
:01033C00229E
:10033D00E47858F67FA07D017B5812004D7FA17D9A
:10034D00017B5812004D7858E620E102D322C322DA
:0300230002035D78
:10035D00C0E0C0D0C000309809745B2513F8A69991
:0B036D000513C298D000D0D0D0E032C1
:10037800D2ACD2AAD28A1200321200737F50120570
:0B0388001CC2007F617D0112052E22C7
:100393001203783000FDC2007F801200167B057ABD
:1003A30005790B7861E6F52D12062D7861E6751057
:1003B30000F511AE10AF11E510600281BDEF24B15D
:1003C300700281452409600281BD751202E4FF12A7
:1003D300094C7FDC12094C7F1012094C751201E4A1
:1003E300F513E513B402FB75410175420075435DD6
:1003F3007544007545027B017A00795B1208F3EFBF
:100403003395E0F5108F114511701E7FC012001651
:100413007B057A05790E7861E6F52D12062D7F525C
:100423007D017B6112053361967FC01200167B0547
:100433007A05791612062D7F527D017B59120533F9
:100443006196751202E4FF12094C7FDF12094C7F9B
:100453008A12094C751201E4F513E513B402FB7516
:10046300410175420075435F7544007545027B0188
:100473007A00795B1208F3EF3395E0F5108F11459D
:1004830011701E7FC01200167B057A05790E786104
:10049300E6F52D12062D7F527D017B611205336136
:1004A300967FC01200167B057A05791612062D7FFA
:1004B300527D017B5912053361967FC01200167B72
:1004C300057A05791612062D7F527D017B59120597
:0404D30033619622D9
:10051C008FDBD296D29775290143A8A0C2BD75D89E
:10052C00C5228F228D27228D268F288B23D2DD2268
:07002B00C0D0C0D9C029229A
:0601000075D8D5D0D03205
:080108008528DA75D8C501A0B5
:080110008528DA75D8C501A0AD
:0D00A00075D018A823A923852625D0D032BD
:0701180075D01887DA01B56C
:0601200075D8D5D0D032E5
:08012800D5268575D8D501B973
:0C00B00075D01887DA75D8C509D0D03299
:0601300075D8D5D0D032D5
:0801380075D8E585252601B903
:0501400075D8C501CCDB
:0601480075D8D5D0D032BD
:0701500075D018A6DA01C00A
:0F00C000D5260575D8C1800475D8C508D0D032B3
:0601580075D8D5D0D032AD
:0801600075D8C575D01801D057
:0700D000A822A927D0D032BD
:0801680075D8E575D01801D02F
:0701800075D018A6DA01D8C2
:1000D800D90775D8C1D20001E575D8C508D0D03286
:0501880075D8C501E57A
:0601A00075D8C5D0D03275
:0201A80001E86C
:0D00E80075D018A92287DA75D8C5D0D0329E
:0201B00001E864
:0701B80075D01887DA01F889
:0700F80075D8C509D0D03214
:0601C00075D8C5D0D03255
:0601C80075D8C5D0D0324D
:0300000002053CBA
:0C053C00787FE4F6D8FD7581610205832C
:1005C800E539242DF8E6053922782A300A02782DF3
:1005D800E475F0011209F40209962003EB7F2ED28C
:1005E800038018EF540F2490D43440D4FF30070B05
:1005F800EF24BFB41A0050032461FFE53A600215E6
:100608003A053DE53D7002053C200B58300A0D784F
:100618002AE475F0011209F4EF0209E002094C74AA
:1006280003D20A8003E4C20AF5398B2A8A2B892C63
:10063800E4F53AF53CF53DE53A60077F20120603FC
:1006480080F5F53BC204C203C205C206C208C2094E
:10065800C20B1205D1FF700D300A057F0012061774
:10066800AF3DAE3C22B4254EC2D5C2071205D1FF1C
:1006780024D0B40A00501C75F00A20D50DC53AA440
:10068800253AF53A7002D20680E0C53BA4253BF531
:100698003B80D724CFB41A00EF5004C2E5D207023A
:1006A80007FDD20480C2D20380BED20580BAD2D55B
:1006B80080B81205C8FF12060302063FD20980A8B7
:1006C800D20880A41205C8FB1205C8FA1205C8F999
:1006D8004A4B700679C47A087B05200533E53A60F1
:1006E8002FAF3BBF00011F7E008E82758300120969
:1006F800B160050EEE6F70F1C2D5EBC0E0EAC0E064
:10070800E9C0E0EE120841D0E0F9D0E0FAD0E0FB11
:10071800120996FF60A3EBC0E0EAC0E0E9C0E0126E
:100728000603D0E02401F9D0E03400FAD0E0FBE57C
:100738003B60DDD53BDA80817B057A08793DD205BF
:1007480080987910800C79088008D2D5790A8006BB
:10075800790AC2D5C209E4FAFDFEFF1205C8FC7B7E
:10076800082004131205C8FD7B1030030A1205C8BF
:10077800FE1205C8FF7B20EC3382D592D55013C3F7
:10078800E43003069FFFE49EFEE42004039DFDE49D
:100798009CFCE4CBF8C204EC700CCFCECDCCE824A2
:1007A800F8F870F38017C3EF33FFEE33FEED33FD37
:1007B800EC33FCEB33FB994002FB0FD8E9EB300438
:1007C80005F8D0E0C448B204C0E00AEC4D4E4F78BA
:1007D800207B0070C2EAC0E0120843D0F0D0E020CD
:1007E8000404C4C0E0C4B204C0F01205ECD0F0D5D3
:1007F800F0EB02063F120A0406CC53074A5806AE2D
:100808004C06AA42074E4F07524407524906BA43BC
:1008180007585507404607404507404708D6500641
:10082800B22D06B62E06C42B06C82306B42008D15E
:100838002A000006BE3F3F3F00790AA2D5200614D1
:10084800300809B910020404B9080104A2D5200926
:10085800025001042005619205B53A005032C0E00B
:0B0868007F203006177F30A2057209C8
:100873007208500D120898C205C209C2087F308061
:100883000F300803E9C0E0120603300803D0E0F993
:10089300D0E0B53ACE3008177F30B9100C120603FA
:1008A3007F583007077F788003B9080312060330A7
:1008B30005057F2D0206037F2B2009F82292058070
:1008C300D4286E756C6C29002D4958504443D20BC3
:1008D3000206701205C8B406004001E49008CB93E9
:1008E3001205F4743A1205F4D206753A0402074A63
:1008F3008B3E8A3F8940AB41AA42A943120996FE27
:10090300AB3EAA3FA940120996FD6E702BED600D18
:10091300E54515457002154414454470037F0022D4
:1009230074012540F540E4353FF53F74012543F557
:1009330043E43542F54280BED3EE6480F8ED648033
:090943009840037F01227FFF228E
:10094C00BF0A08740DFF12095B800312095B22C0F9
:10095C0000C001C082C0837912E7B4020AEFF59996
:10096C003099FDC299801A758382758202E0548099
:10097C0070FBE77007758201EFF08005758200EF60
:0A098C00F0D083D082D001D0002209
:10054800020393E493A3F8E493A34003F68001F233
:1005580008DFF48029E493A3F85407240CC8C333B4
:10056800C4540F4420C8834004F456800146F6DF83
:10057800E4800B010204081020408090018DE47E85
:10058800019360BCA3FF543F30E509541FFEE49378
:10059800A360010ECF54C025E060A840B8E493A33F
:1005A800FAE493A3F8E493A3C8C582C8CAC583CA6A
:1005B800F0A3C8C582C8CAC583CADFE9DEE780BE22
:01019E000060
:10099600BB020689828A83E0224003BB0402E72267
:0B09A600400789828A83E49322E32249
:1009B100BB020CE58229F582E5833AF583E022400A
:1009C10003BB0406E92582F8E622400DE58229F5FC
:0F09D10082E5833AF583E49322E92582F8E22256
:1009E000BB020689828A83F0224003BB0402F722FD
:0409F0005001F3229D
:1009F400FAE6FB0808E6F925F0F618E6CA3AF62204
:100A0400D083D082F8E4937012740193700DA3A381
:100A140093F8740193F5828883E473740293686095
:060A2400EFA3A3A380DF95
:00000001FF
