:1002BC002020754E6F6465204C69627261727920E2
:1002CC00002020202020546573746572202020208B
:1002DC002000253362752C20436F64653A2025334A
:1002EC00627500202053656E64696E6720434C452F
:1002FC0041522000202053656E64696E67202741AF
:0D030C0027202020002025303262582000DC
:100319004342050502BC4342080502CD41420B0197
:0403290041420C0041
:10005600904208E0F9A3E0FAA3E0904212C9F0A3A7
:10006600EAF0A3E9F0904205E0FBA3E0FAA3E0F989
:040076001203B2229D
:10003200D2AF1203991200497F681203321200569E
:070042001203CE12009A2206
:1001CE00904200EFF090420BE0147008904200E075
:0A01DE00FF120382904200E0FF22AE
:1001E80030002390420CE004F07F801200877B05EA
:1001F8007A0279DE90420CE0904223F07822E6A35E
:07020800F01206DAC2002229
:10020F0030026F12007AEF14602614604214604EB1
:10021F00240370597FC01200877B057A0279EF1291
:10022F0006DAE47824F67F607D027B241200072231
:10023F007FC01200877B057A0379001206DA7824D3
:10024F0076020876417F607D027B24120007227FB1
:10025F00C01200877B057A0279EF1206DA227FC07F
:10026F001200877B057A0279EF1206DA227F0112DC
:02027F000087F6
:01028100225A
:1002820075C0FFE4F5C080F87F0A12002512018DC7
:100292002004FD7F801200877B057A03791190424A
:1002A2001DE0904223F01206DA904204E004F0705E
:0902B20006904203E004F080CF45
:0102BB002220
:040003001203322290
:0F0016007F01AE070FEE60053001F7D322C32242
:0700070012034B1200162248
:100332008FDBD296D297750F0143A8A0C2BD75D8A4
:10034200C5228F088D0DC200228D0C8F0E8B09D213
:04035200DDC20122E5
:07002B00C0D0C0D9C00F22B4
:0601000075D8D5D0D03205
:08010800850EDA75D8C501A0CF
:08011000850EDA75D8C501A0C7
:0701180075D01887DA01B56C
:0601200075D8D5D0D032E5
:08012800D50C8575D8D50190B6
:0601300075D8D5D0D032D5
:0801380075D8E5850B0C01B937
:0501400075D8C501CCDB
:0601480075D8D5D0D032BD
:0701500075D018A6DA01C00A
:0801580075D8D5D201D0D032D8
:0801600075D8C575D01801D057
:0801680075D8E575D01801D02F
:0701800075D018A6DA01D8C2
:0501880075D8C501E57A
:0601A00075D8C5D0D03275
:0201A80001E86C
:0201B00001E864
:0701B80075D01887DA01F889
:0601C00075D8C5D0D03255
:0601C80075D8C5D0D0324D
:0A009000D2010200B9D2010200CC37
:0D00A00075D018A809A909850C0BD0D03225
:0C00B00075D01887DA75D8C509D0D03299
:0F00C000D50C0575D8C1800475D8C508D0D032CD
:0700D000A808A90DD0D032F1
:1000D800D90775D8C1D20001E575D8C508D0D03286
:0D00E80075D018A90887DA75D8C5D0D032B8
:0700F80075D8C509D0D03214
:02032D00C1020B
:09004900D2AAD28AD2AFC2BA22B7
:0300130002000EDA
:03000E00D20232E9
:0D007A003002FDC202908000E02410FF2241
:10035600E47815F690420D04F07FA0FD7B1512009F
:10036600074002D3227FA17D017B151200074002C0
:0C037600D3227815E630E102C322D32226
:10038200908202E020E7F9300307908201EFF080CB
:0703920005908200EFF0224C
:08008700C203120382D203221E
:10039900C2037F381203827F0C1203827F06120385
:0903A900827F01120382D20322BB
:1003B2007F801200871206DA7FC0120087904212F5
:0C03C200E0FBA3E0FAA3E0F91206DA2247
:1005730025303262583A25303262583A2530326299
:10058300580025303262582F2530326258002054EB
:10059300696D653A2048483A4D4D3A5353002562F8
:0405A30058003A00C2
:1003CE00E47826F608760C7FA07D027B2612034B7E
:0403DE0012001622D1
:1003E200E47828F67FA07D017B2812034B120016C9
:1003F2004002C3227FA17D057B2812034B12001607
:100402004002C3227B057A057973782CE690422359
:0E041200F018E6A3F018E6A3F01206DAD322E3
:10042000E4782DF67FA07D017B2D12034B12001680
:100430004002C3227FA17D087B2D12034B120016C0
:100440004002C3227B057A0579857833E690422302
:0A045000F018E6A3F01206DAD3223A
:10045A00ED14601A14602114602814601B146022C1
:10046A0024057028D3EF648094825020D322D3EFDE
:10047A00648094895016D322D3EF64809485500CFB
:0E048A00D322D3EF648094895002D322C32280
:0A0170007B057A0579911206DA2268
:1004980078307601E408F6C37831E66480948650B3
:1004A800501209A0782FEFF67831E6FD12045A5061
:1004B800E6782FE6FF7831E6FD3395E0FC74152DDC
:1004C800F582EC3442F583EFF07B057A0579A1904B
:1004D8004223EFF01206DA7831E6FF64016004EF98
:1004E800B403097B057A0579A51206DA7831068006
:1004F800A678327602904215E0C454F0FFA3E02FAC
:100508007835F6A3E0C454F0FFA3E02F18F6A3E073
:10051800C454F0FFA3E02F18F6D37835E66480942E
:10052800A35020D318E6648094D95017D318E664F2
:100538008094D9500E7FA07D047B3212034B1200A9
:0505480016D322C322BE
:10054D00E47836F67FA07D017B3612034B12001640
:10055D007FA17D017B3612034B1200167836E62003
:06056D00E102D322C322CB
:060025004387108FFF224B
:02032F00C10407
:06009A00E4F5C5D2AE2220
:0B018D00D204E490421BF075C508226C
:030053000205A7FC
:1005A700C0E0C083C082C0D090421BE0241CF5820B
:1005B700E43442F583E5C6F053C5EF90421BE004EF
:1005C700F0B40404C204800890421BE02408F5C577
:0905D700D0D0D082D083D0E032F4
:030000000205E016
:0C05E000787FE4F6D8FD7581360206270E
:10066C00E5102423F582E43442F583E00510229052
:10067C004220300C03904223E475F001120A080268
:10068C0009AA2005E97F2ED2058018EF540F24907B
:10069C00D43440D4FF30090BEF24BFB41A005003FC
:1006AC002461FFE511600215110514E514700205B3
:1006BC0013200D59300C0E904220E475F001120AF3
:1006CC0008EF0209F40201CE7403D20C8003E4C2D9
:1006DC000CF510904220120A1FE4F511F513F514D5
:1006EC00E51160077F201206AF80F5F512C206C235
:1006FC0005C207C208C20AC20BC20D12067BFF70EC
:10070C000D300C057F001206C3AF14AE1322B425B6
:10071C004EC2D5C20912067BFF24D0B40A00501C6D
:10072C0075F00A20D50DC511A42511F5117002D252
:10073C000880E0C512A42512F51280D724CFB41A74
:10074C0000EF5004C2E5D2090208AAD20680C2D238
:10075C000580BED20780BAD2D580B812066CFF12C3
:10076C0006AF0206ECD20B80A8D20A80A412066C4B
:10077C00FB12066CFA12066CF94A4B700679717A08
:10078C00097B05200733E511602FAF12BF00011F55
:10079C007E008E827583001209C560050EEE6F70A7
:1007AC00F1C2D5EBC0E0EAC0E0E9C0E0EE1208EE21
:1007BC00D0E0F9D0E0FAD0E0FB1209AAFF60A3EB7D
:1007CC00C0E0EAC0E0E9C0E01206AFD0E02401F9D5
:1007DC00D0E03400FAD0E0FBE51260DDD512DA800F
:1007EC00817B057A0879EAD20780987910800C7998
:1007FC00088008D2D5790A8006790AC2D5C20BE4E2
:10080C00FAFDFEFF12066CFC7B0820061312066C28
:10081C00FD7B1030050A12066CFE12066CFF7B2065
:10082C00EC3382D592D55013C3E43005069FFFE418
:10083C009EFEE42006039DFDE49CFCE4CBF8C2067E
:10084C00EC700CCFCECDCCE824F8F870F38017C345
:10085C00EF33FFEE33FEED33FDEC33FCEB33FB9962
:10086C004002FB0FD8E9EB300605F8D0E0C448B2E3
:10087C0006C0E00AEC4D4E4F78207B0070C2EAC0F7
:10088C00E01208F0D0F0D0E0200604C4C0E0C4B2FE
:10089C0006C0F0120698D0F0D5F0EB0206EC120A66
:1008AC002807795307F758075B4C07574207FB4F4C
:1008BC0007FF4407FF4907674308055507ED46073F
:1008CC00ED4507ED47098350075F2D07632E077130
:1008DC002B077523076120097E2A0000076B3F3F19
:1008EC003F00790AA2D5200814300A09B910020475
:1008FC0004B9080104A2D5200B02500104200761A1
:10090C009207B511005032C0E07F203008177F30BD
:04091C00A207720BB1
:10092000720A500D120945C207C20BC20A7F3080FD
:100930000F300A03E9C0E01206AF300A03D0E0F935
:10094000D0E0B511CE300A177F30B9100C1206AFC7
:100950007F583009077F788003B908031206AF304B
:1009600007057F2D0206AF7F2B200BF82292078010
:10097000D4286E756C6C29002D4958504443D20D13
:1009800002071D12066CB406004001E4900978933A
:100990001206A0743A1206A0D2087511040207F7D5
:0A09A0003098FDAF99C2987E002246
:1005EC00020282E493A3F8E493A34003F68001F2A1
:1005FC0008DFF48029E493A3F85407240CC8C33310
:10060C00C4540F4420C8834004F456800146F6DFDE
:10061C00E4800B0102040810204080900319E47E52
:10062C00019360BCA3FF543F30E509541FFEE493D3
:10063C00A360010ECF54C025E060A840B8E493A39A
:10064C00FAE493A3F8E493A3C8C582C8CAC583CAC5
:10065C00F0A3C8C582C8CAC583CADFE9DEE780BE7D
:0103310000CB
:1009AA00BB020689828A83E0224003BB0402E72253
:0B09BA00400789828A83E49322E32235
:1009C500BB020CE58229F582E5833AF583E02240F6
:1009D50003BB0406E92582F8E622400DE58229F5E8
:0F09E50082E5833AF583E49322E92582F8E22242
:1009F400BB020689828A83F0224003BB0402F722E9
:040A04005001F32288
:100A0800F8E0FBA3A3E0F925F0F0E5821582700277
:070A18001583E0FA38F0221B
:090A1F00EBF0A3EAF0A3E9F022D8
:100A2800D083D082F8E4937012740193700DA3A35D
:100A380093F8740193F5828883E473740293686071
:060A4800EFA3A3A380DF71
:00000001FF
