:1003AC002054696D653A2048483A4D4D3A535300F4
:1003BC00256258003A00202025303262583A253008
:1003CC003262583A25303262583A2530326258003F
:1003DC0025303262582F253032625800E44E6F645B
:0703EC00652044656D6F0000
:0603F300011800014A00A0
:03002B0002002EA2
:10002E00C0E0C0F0C083C082C0D075D008AFD9EF99
:10003E001204B5006900006E08006E1000A11800D1
:10004E00BD2000C22800E93000EE3800F94000FE65
:10005E0048010350012C580000012F75D8D5212FCF
:10006E007852E6F5DA75D8C518E67865F6784786DB
:10007E000B08E6FA08E6784EA60B08A60A08F678EC
:10008E0044860B08E6FA08E6784BA60B08A60A0883
:10009E00F6212F784E860B08E6FA08E6F91204864A
:1000AE00F5DA75D8C5740126F618E436F680727541
:1000BE00D8D5806D785116E6601C784E860B08E612
:1000CE00FA08E6F9120486F5DA75D8C5740126F633
:1000DE0018E436F6804B75D8D5804675D8D5804154
:1000EE0075D8E57865E67851F6803675D8C58031D5
:1000FE0075D8D5802C784B860B08E6FA08E6F9E51C
:10010E00DA1204A1785116E6600F75D8C5784D74D1
:10011E000126F618E436F6800875D8C1800375D826
:0C012E00D5D0D0D082D083D0F0D0E03209
:10013A007844A60308A60208A60108A60308A60290
:10014A0008A6017851A60508A607D2DD7851E670FF
:02015A00FB2286
:10015C00D296D29743A8A0D2BD75D8C5E47853F6F1
:10016C0008760C7FA07D027B017A00795312013A4C
:01017C002260
:10017D00758921758DFDD28ED2ABD2A9D2AAD28A24
:10018D00D2AFC2BA7587807598707518017F381215
:10019D0008457F0C1208457F061208457F0112089D
:0501AD0045E4F51822F5
:0A000300751801120845E4F51822F3
:03001B0002001EC2
:07001E0043871075FFF0326B
:030013000201B235
:0C01B200C0D075D010784A7601D0D03251
:1001BE00784AE660FBE4784AF6908000E02410FF6F
:0101CE00220E
:1001CF00AE07ED14601B14602314602B14601D1414
:1001DF0060252405702CD3EE6480948250247F0117
:1001EF0022D3EE6480948950197F0122D3EE64806C
:1001FF009485500E7F0122D3EE6480948950037F43
:05020F0001227F002226
:1002140078377601E408F67FC01200037B057A0381
:1002240079AC12057F7FC71200037F0F120003C34E
:100234007838E66480948650421201BE7836EFF630
:100244007838E6FD1201CFEF60E57836E6FF7838BE
:10025400E6243BF8A6077B057A0379BC8F251205B3
:100264007F7838E6FF64016004EFB403097B057A04
:100274000379C012057F78380680B4785D760278F9
:100284003BE6C454F008267960F708E6C454F00845
:100294002619F708E6C454F0082619F7D37860E65F
:1002A400648094A35032D318E6648094D95029D33F
:1002B40018E6648094D950207FA07D047B017A00E5
:1002C400795D12013A7F01120003E4785DF67F0C38
:0D02D4001200037E007F01227E007F0022C9
:1002E100E4785DF67FA07D017B017A00795D1201E2
:1002F1003A0F7D087A00795512013A7FC012000346
:100301007B057A0379C27859E6F52518E6F52618B2
:10031100E6F52718E6F52812057F7F8B1200037B8F
:10032100057A0379DC785BE6F52518E6F5261205F2
:020331007F2229
:10033300E47839F67FA07D017B017A0079391201D7
:100343003A0F12013A7839E620E1037F01227F0058
:010353002287
:10035400E4784AF6EF24F47007120214EF4E60F9C1
:010364002276
:10036500785D76050876270876677FA07D037B0193
:080375007A00795D12013A22C1
:10037D0012017D12015C7F801200037B057A0379E7
:10038D00E812057F1202E1784AE660F8120333EFB6
:0F039D0060F2908000E02410FF12035480E622EB
:030000000203FAFE
:0C03FA00787FE4F6D8FD758165020441AF
:10048600BB020689828A83E0224003BB0402E7227C
:0B049600400789828A83E49322E3225E
:1004A100BB020689828A83F0224003BB0402F72241
:0404B1005001F322E1
:1004B500D083D082F8E4937012740193700DA3A3D6
:1004C50093F8740193F5828883E4737402936860EA
:0604D500EFA3A3A380DFEA
:10051A00E5312425F8E605312278223007027825CC
:10052A00E475F00112050A0204862000EB7F2ED240
:10053A00008018EF540F2490D43440D4FF30040BB9
:10054A00EF24BFB41A0050032461FFE5326002159C
:10055A00320535E5357002053420085830070D7824
:10056A0022E475F00112050AEF0204A1020845749B
:10057A0003D2078003E4C207F5318B228A23892438
:10058A00E4F532F534F535E53260077F201205557A
:10059A0080F5F533C201C200C202C203C205C20617
:1005AA00C208120523FF700D3007057F0012056986
:1005BA00AF35AE3422B4254EC2D5C204120523FF8C
:1005CA0024D0B40A00501C75F00A20D50DC532A4F7
:1005DA002532F5327002D20380E0C533A42533F503
:1005EA003380D724CFB41A00EF5004C2E5D20402F4
:1005FA00074FD20180C2D20080BED20280BAD2D5C1
:10060A0080B812051AFF120555020591D20680A874
:10061A00D20580A412051AFB12051AFA12051AF954
:10062A004A4B700679167A087B05200233E5326058
:10063A002FAF33BF00011F7E008E82758300120424
:10064A00DB60050EEE6F70F1C2D5EBC0E0EAC0E0E8
:10065A00E9C0E0EE120793D0E0F9D0E0FAD0E0FB6F
:10066A00120486FF60A3EBC0E0EAC0E0E9C0E01232
:10067A000555D0E02401F9D0E03400FAD0E0FBE5DA
:10068A003360DDD533DA80817B057A07798FD20230
:10069A0080987910800C79088008D2D5790A80066A
:1006AA00790AC2D5C206E4FAFDFEFF12051AFC7BDE
:1006BA000820011312051AFD7B1030000A12051AD0
:1006CA00FE12051AFF7B20EC3382D592D55013C354
:1006DA00E43000069FFFE49EFEE42001039DFDE452
:1006EA009CFCE4CBF8C201EC700CCFCECDCCE82454
:1006FA00F8F870F38017C3EF33FFEE33FEED33FDE6
:10070A00EC33FCEB33FB994002FB0FD8E9EB3001E9
:10071A0005F8D0E0C448B201C0E00AEC4D4E4F786B
:10072A00207B0070C2EAC0E0120795D0F0D0E0202A
:10073A000104C4C0E0C4B201C0F012053ED0F0D535
:10074A00F0EB0205911204B5061E53069C580600EA
:10075A004C05FC4206A04F06A44406A449060C43D5
:10076A0006AA55069246069245069247082850065A
:10077A00042D06082E06162B061A23060620082321
:10078A002A000006103F3F3F00790AA2D520031431
:10079A00300509B910020404B9080104A2D52006DB
:1007AA00025001042002619202B532005032C0E0C8
:0B07BA007F203003177F30A202720680
:1007C5007205500D1207EAC202C206C2057F3080CB
:1007D5000F300503E9C0E0120555300503D0E0F9F7
:1007E500D0E0B532CE3005177F30B9100C12055563
:1007F5007F583004077F788003B908031205553008
:1008050002057F2D0205557F2B2006F822920280D6
:10081500D4286E756C6C29002D4958504443D20874
:100825000205C212051AB406004001E490081D93A2
:10083500120546743A120546D20375320402069C27
:10084500BF0A09740DFF120851740AFFC000C001E8
:10085500C082C0837918E7B40311850083758200CF
:10086500EFF0C294D2942092FD8027B4020AEFF5EE
:10087500993000FDC200801A850083758202E0541C
:100885008070FBE77007758201EFF08005758200C7
:0B089500EFF0D083D082D001D0002211
:1004060002037DE493A3F8E493A34003F68001F28C
:1004160008DFF48029E493A3F85407240CC8C333F7
:10042600C4540F4420C8834004F456800146F6DFC6
:10043600E4800B01020408102040809003F3E47E60
:10044600019360BCA3FF543F30E509541FFEE493BB
:10045600A360010ECF54C025E060A840B8E493A382
:10046600FAE493A3F8E493A3C8C582C8CAC583CAAD
:10047600F0A3C8C582C8CAC583CADFE9DEE780BE65
:0103F9000003
:1004DB00BB020CE58229F582E5833AF583E02240E5
:1004EB0003BB0406E92582F8E622400DE58229F5D7
:0F04FB0082E5833AF583E49322E92582F8E22231
:10050A00FAE6FB0808E6F925F0F618E6CA3AF622F2
:00000001FF
