:10007D0020202020414443205465737420202020EB
:09008D00002025303262582000E9
:10001600784D76050876230876697FA07D037B4DAB
:040026001201D322CE
:09000300D2AE75C508E4F5132224
:10003200D2AAD28AD2AFC2BA7510821201B8120005
:02004200032297
:05000C00C2008000228B
:0300530002005652
:10005600C0E0C0D0C00074082513F8A6C653C5EF8B
:100066000513E513B40803E4F513E5132408F5C5F1
:07007600D000D0D0D0E03231
:10015E001200327F801200967B057A00797D12069E
:10016E003E7F80120096E4F512E512D394035015EB
:10017E007B057A00798E74082512F8E6F53C120696
:10018E003E051280E47FC0120096751204E512D36C
:10019E00940750CD7B057A00798E74082512F8E607
:0A01AE00F53C12063E051280E42223
:1000CF008FDBD296D29775270143A8A0C2BD75D8F2
:0B00DF00C5228D258F26D2DD8B22224A
:07002B00C0D0C0D9C027229C
:0601000075D8D5D0D03205
:080108008526DA75D8C501A0B7
:080110008526DA75D8C501A0AF
:0D00A00075D018A822A922852524D0D032C1
:0701180075D01887DA01B56C
:0601200075D8D5D0D032E5
:08012800D5258575D8D501B974
:0C00B00075D01887DA75D8C509D0D03299
:0601300075D8D5D0D032D5
:0801380075D8E585242501B905
:0501400075D8C501CCDB
:0601480075D8D5D0D032BD
:0701500075D018A6DA01C00A
:0F00C000D5250575D8C1800475D8C508D0D032B4
:0601580075D8D5D0D032AD
:1004200025303262583A25303262583A25303262ED
:10043000580025303262582F25303262580020543F
:10044000696D653A2048483A4D4D3A53530025624C
:0404500058003A0016
:05004D00C100013800B4
:060044004387108FFF222C
:0300130002004A9E
:03004A00D20032AF
:0A009600753801120454E4F5382215
:1001B8007538017F381204547F0C1204547F0612DC
:0B01C80004547F01120454E4F53822B7
:1001D300E47850F608F61200E1E525601778500838
:1001E30006E6187001068606D39464EE6480948054
:0601F30040E7C322D32205
:0F00EA00758921758DFDD28E758780759870226E
:1001F900E47852F608760C7FA07D027B521201D377
:0102090022D2
:10020A008B148A158916E47854F67FA07D017B54F5
:10021A001201D37FA17D057B541201D37856E6AB38
:10022A0014AA15A91612056B08E690000112057F9B
:0A023A007858E690000212057F22BA
:100244008B288A29892AE47859F67FA07D017B5975
:100254001201D37FA17D087B591201D3785EE6ABEE
:1002640028AA29A92A12056B08E690000112057F25
:010274002267
:100275008B2B8A2C892DAF05120096AB2BAA2CA9A6
:100285002D90000212053CF53C90000112053CF54D
:100295003D120521F53E7B057A04792012063E22A2
:1002A5008B2E8A2F8930AF05120096AB2EAA2FA967
:1002B5003090000112053CF53C120521F53D7B050A
:0802C5007A04793212063E2290
:1002CD008F177B017A00796012020A7B017A00791F
:0702DD0060AD17120275224B
:1002E4008F317B017A0079631202447B017A0079B1
:0702F40063AD311202A522E7
:1002FB00ED14601A14602114602814601B14602222
:10030B0024057028D3EF648094825020D322D3EF3E
:10031B00648094895016D322D3EF64809485500C5B
:0E032B00D322D3EF648094895002D322C322E0
:0D0339003000FDC200908000E02410FF2283
:10034600E47866F67FC01200967B057A04793E1241
:10035600063E7FC71200967F0F120096C37866E6A8
:1003660064809486503C12033918A60708E6FD12ED
:1003760002FB50E818E608E62432F8A6077B057A61
:1003860004794E8F3C12063E7866E6FF64016004EF
:10039600EFB403097B057A04795212063E786606A5
:1003A60080BA78677602E532C454F02533FF786A5E
:1003B600F6E534C454F025357869F6E536C454F0CC
:1003C60025377868F6D3EF648094A3502BD308E6DC
:1003D600648094D95022D318E6648094D950197F4A
:1003E600A07D047B671201D37F01120096E4786733
:0A03F600F67F0C120096D322C322FA
:10040000E4786BF67FA07D017B6B1201D37FA17D29
:10041000017B6B1201D3786BE620E102D322C32269
:10045400BF0A03740DFFC000C001C082C083793895
:10046400E7B4020AEFF5993099FDC299801A851014
:1004740083758202E0548070FBE77007758201EF98
:10048400F08005758200EFF0D083D082D001D000D7
:010494002245
:0300000002049562
:0C049500787FE4F6D8FD75816B0204DC72
:10052100BB020689828A83E0224003BB0402E722E0
:0B053100400789828A83E49322E322C2
:10053C00BB020CE58229F582E5833AF583E0224083
:10054C0003BB0406E92582F8E622400DE58229F575
:0F055C0082E5833AF583E49322E92582F8E222CF
:10056B00BB020689828A83F0224003BB0402F72276
:04057B005001F32216
:10057F00F8BB020DE58229F582E5833AF583E8F0B1
:10058F00224003BB0406E92582C8F6225005E9255F
:04059F0082C8F222FA
:1005D900E548243CF8E60548227839300802783C99
:1005E900E475F0011205A30205212001EB7F2ED24B
:1005F900018018EF540F2490D43440D4FF30050BF8
:10060900EF24BFB41A0050032461FFE549600215C5
:1006190049054CE54C7002054B20095830080D7806
:1006290039E475F0011205A3EF02056B0204547455
:1006390003D2088003E4C208F5488B398A3A893B1A
:10064900E4F549F54BF54CE54960077F201206149E
:1006590080F5F54AC202C201C203C204C206C2073A
:10066900C2091205E2FF700D3008057F0012062845
:10067900AF4CAE4B22B4254EC2D5C2051205E2FFDE
:1006890024D0B40A00501C75F00A20D50DC549A420
:100699002549F5497002D20480E0C54AA4254AF5E6
:1006A9004A80D724CFB41A00EF5004C2E5D205021C
:1006B900080ED20280C2D20180BED20380BAD2D53E
:1006C90080B81205D9FF120614020650D20780A875
:1006D900D20680A41205D9FB1205D9FA1205D9F957
:1006E9004A4B700679D57A087B05200333E54960C2
:1006F9002FAF4ABF00011F7E008E8275830012054D
:100709003C60050EEE6F70F1C2D5EBC0E0EAC0E0C7
:10071900E9C0E0EE120852D0E0F9D0E0FAD0E0FBEF
:10072900120521FF60A3EBC0E0EAC0E0E9C0E012D6
:100739000614D0E02401F9D0E03400FAD0E0FBE55A
:100749004A60DDD54ADA80817B057A08794ED20381
:1007590080987910800C79088008D2D5790A8006AA
:10076900790AC2D5C207E4FAFDFEFF1205D9FC7B5E
:10077900082002131205D9FD7B1030010A1205D990
:10078900FE1205D9FF7B20EC3382D592D55013C3D5
:10079900E43001069FFFE49EFEE42002039DFDE490
:1007A9009CFCE4CBF8C202EC700CCFCECDCCE82493
:1007B900F8F870F38017C3EF33FFEE33FEED33FD26
:1007C900EC33FCEB33FB994002FB0FD8E9EB300229
:1007D90005F8D0E0C448B202C0E00AEC4D4E4F78AB
:1007E900207B0070C2EAC0E0120854D0F0D0E020AB
:1007F9000204C4C0E0C4B202C0F01205FDD0F0D5B5
:10080900F0EB0206501205B306DD53075B5806BF2D
:100819004C06BB42075F4F07634407634906CB4356
:1008290007695507514607514507514708E75006DB
:10083900C32D06C72E06D52B06D92306C52008E2E7
:100849002A000006CF3F3F3F00790AA2D5200414B1
:10085900300609B910020404B9080104A2D5200719
:10086900025001042003619203B549005032C0E0EF
:0B0879007F203004177F30A2037207BD
:100884007206500D1208A9C203C207C2067F308047
:100894000F300603E9C0E0120614300603D0E0F975
:1008A400D0E0B549CE3006177F30B9100C120614CB
:1008B4007F583005077F788003B908031206143087
:1008C40003057F2D0206147F2B2007F82292038054
:1008D400D4286E756C6C29002D4958504443D209B4
:1008E4000206811205D9B406004001E49008DC93A5
:1008F400120605743A120605D20475490402075B10
:1004A10002015EE493A3F8E493A34003F68001F212
:1004B10008DFF48029E493A3F85407240CC8C3335C
:1004C100C4540F4420C8834004F456800146F6DF2B
:1004D100E4800B010204081020408090004DE47E6E
:1004E100019360BCA3FF543F30E509541FFEE49320
:1004F100A360010ECF54C025E060A840B8E493A3E7
:10050100FAE493A3F8E493A3C8C582C8CAC583CA11
:10051100F0A3C8C582C8CAC583CADFE9DEE780BEC9
:0100520000AD
:1005A300FAE6FB0808E6F925F0F618E6CA3AF62259
:1005B300D083D082F8E4937012740193700DA3A3D7
:1005C30093F8740193F5828883E4737402936860EB
:0605D300EFA3A3A380DFEB
:00000001FF
